:02000002D0002C
:1040000000400D0084AD0D00000005000D0005010D
:0840100004019301000000000F
:10401800D0A30D0009480A49884208B505D0094AC5
:10402800824202D0121A04F04DFB0748074A0021C9
:10403800121A04F052FB014808BD00BFD8DF032064
:10404800A0AC0D0094E0032094E00320F0E70320E7
:1040580070B502F065F9074C074BE41AA40800256F
:104068001E46A54204D056F8253098470135F8E792
:1040780070BD00BF94AC0D0054AC0D0000F0F2B858
:1040880008B500F06DFABDE8084002F017B901F074
:104098005DBC01F05BBC01F061BC01F05FBC007865
:1040A800B0FA80F0400970470123037070470000A0
:1040B80010B502F0A3FC134C134902F05FF800237B
:1040C80004221249124801F029FC20464FF41651E7
:1040D80000F04AFB20460F4900F04FFB20460E49EE
:1040E80000F04BFB0D49204600F047FB4FF47A7077
:1040F80002F096F802F04AFD0949BDE8104002F0C6
:104108003DB800BF20E10320E4A30D0084E10320B3
:10411800F0A30D00F4A30D0026A40D0037A40D0094
:1041280046A40D003C2802DD074B18687047074B72
:104138001B680228C9BF3C23184693FBF0F0024BCA
:10414800C4BF1B6858437047E8DF0320E0DF032043
:1041580008B502F053FC074902F010F800230422C6
:104168000549064801F0DAFB0548BDE8084000F0BB
:10417800B9BE00BF52A40D00A4E003205EA40D0048
:1041880070E103202DE9F047F4EE600AF1EE10FA31
:104198002DED028BB0EE408A04D6B4EE400AF1EE63
:1041A80010FA03D702F02AFC264910E0DFED267A40
:1041B800B4EEE70AF1EE10FA06DCDFED247AB4EE8D
:1041C800E70AF1EE10FA06D502F018FC204901F0D2
:1041D800D5FF002031E01F4CDFF884A02588042D8E
:1041E80026D810EE100A03F0B3FE0646DAF80000EF
:1041F8000F4603F0ADFE0022174B8046894603F0B8
:10420800FBFE02460B463046394604F067F960B9B2
:104218000022124B4046494603F0EEFE02460B468A
:104228003046394604F078F910B101352580D0E7D9
:10423800002323808AED008A0120BDEC028BBDE8B3
:10424800F08700BF62A40D0000004843000048C387
:1042580077A40D001EE103200000E83F0000F43FB2
:10426800A0E0032008B502F0C9FB4FF4E13102F0E9
:10427800B9FB02F0C3FB044901F080FFFFF718FF08
:10428800BDE80840FFF764BF91A40D0038B5046885
:1042980005467CB16368013B63605BB923682046CF
:1042A8009B689847A368013BA3601BB92368204615
:1042B800DB689847284638BD2DE9F0432DED028B81
:1042C8004D4C4E4DA06A2769D4F8149097FBF5F62B
:1042D80097B003F03DFE99FBF5F543A3D3E900231E
:1042E80003F08AFE04F080F994F83C3094F80380D7
:1042F800139394F83D30129308EE100AE06A03F025
:1043080027FECDE9100118EE100A03F021FECDE9D1
:104318000E01606A03F01CFE35A3D3E9002303F005
:104328006BFE04F061F903F013FECDE90C0194F87B
:1043380039300A93324B089503FB0592099294F899
:104348003820079203FB067306930596A378049317
:104358006378039323780293637901932379294A35
:104368000093FA2143462848284C01F0FFFA02F04E
:1043780045FB274901F0EFFE02F040FB224901F01E
:10438800EAFE214A2349244802F05AFDFDEEC87A84
:1043980017EE900AFFF7C6FE054601F0E3F823681A
:1043A800C01A854214D201F0DDF8206002F026FB25
:1043B8001A4901F0D0FE1A4B134A1B788DF80030C9
:1043C80014A83C23134902F0E3F815A8FFF75EFF91
:1043D80002F014FB134901F0D1FE17B0BDEC028BBB
:1043E800BDE8F083AFF300800B410E4A9869F23FB5
:1043F800E544BB0A293F0A4020E103208096980043
:10440800806967FF9EA40D0084E1032098E00320E3
:104418004DA50D00F0A30D0044E5032053A50D00A4
:104428001CE10320FCA60D0010B52DED028B4248BF
:104438008CB000F099FF4048B0EE408A00F0D2FFFF
:10444800F0EE408AF0EE400AB0EE480AFFF79AFE16
:10445800002869D0384800F0C7FF374810EE104AE6
:1044680000F0EAFF20468DED090A03F071FD30A344
:10447800D3E9002303F0C0FD0022304B304C03F099
:1044880009FC04F0B1F803F063FD9DED090ACDE9DC
:10449800060110EE100A03F05BFD25A3D3E9002303
:1044A80003F0AAFD254B002203F0F4FB04F09CF86E
:1044B80003F04EFDCDE9040118EE900A03F048FD23
:1044C800CDE9020118EE100A03F042FD1D4ACDE9BC
:1044D800000178211C4801F049FA02F08FFA1B49C3
:1044E80001F039FE02F08AFA174901F047FE164A30
:1044F8001749184802F0A4FC01F034F82368C01AE0
:10450800154B1B6898420FD901F02CF8134B20600B
:104518001B788DF800300AA83C230B4A0C4902F09E
:1045280037F80BA8FFF7B2FE0CB0BDEC028B10BD3C
:10453800CDCCCCCCCCCCFC3F70E10320000040407B
:104548009CE0032055A50D00A4E00320A1A50D00C3
:104558005EA40D0044E50320E4DF03201CE10320F2
:1045680070B5234C00F0FEFF2368834202D900F0A7
:10457800F9FF20601F4C00F0F5FF2368984202D233
:1045880000F0F0FF20601C4C00F0ECFF236898421C
:1045980002D200F0E7FF2060184D284600F05EF8D0
:1045A800284600F0EDF888B1284600F0EFF80146FB
:1045B800284600F005F995F83B5006463DB902F04B
:1045C8001DFA0F4901F0DAFD2E4600E0012600F041
:1045D800C9FF2368C01A0B4B1B68984206D90EB155
:1045E800FFF76AFEBDE87040FFF71EBF70BD00BF51
:1045F80098E003209CE00320D8DF032020E103207B
:10460800A7A50D00DCDF032008B50D4B01221A70A9
:1046180000F040FF0623162203210A4800F05AFC46
:1046280002F0B4FA0146084800F098F8074B1A68F7
:10463800074B1A60074B1A68074B1A6008BD00BF82
:104648001CE1032070E1032020E10320E0DF0320C8
:1046580098E00320E4DF03209CE0032070B590F885
:104668004A5004460DB1002070BDC06C03681B6938
:1046780098470028F7D0E06C03685B699847C0B298
:104688000A28144B144A16D119781468C9B265540B
:10469800124D16681249134CAE4214BF0C600E60DE
:1046A8004FF000011970104908BF14604FF0010461
:1046B80018BF15600C7014681A78D2B2511CC9B2B0
:1046C8001970A0541B78772B82BF024B77221A707F
:1046D80070BD00BF84E2032080E2032085E203204E
:1046E80078E30320FDE2032075E30320154A164909
:1046F80000231370154AC3641370154A80F84A30B2
:104708001160144A1449116080F83D3080F83C303B
:1047180043710371C37083704370037080F83A303B
:1047280080F8393080F8383080F83B30C380002377
:1047380043630363C362836243620362C36083604B
:10474800704700BF75E3032085E2032084E203205D
:1047580080E2032078E30320FDE2032038B50D460C
:10476800FFF7C4FFC56438BD08B5C06C02F008FA8D
:104778000A20BDE8084001F053BDC06C01F0FEBC42
:10478800014B1878704700BF75E30320024B0022E5
:104798001A70024B1868704775E3032078E303200A
:1047A8002F290AD9392901D8303904E0A1F1410368
:1047B800052B02D83739C8B270470020704700006F
:1047C8002DE9FF47044608460D4603F0E0FF071FA2
:1047D800EB5D2A2B19D12E18204616F8031CFFF77B
:1047E800DFFF000182B216F8021C2046FFF7D8FF4F
:1047F800104480B202239F4204D9EA5C013350403E
:10480800DBB2F8E708B1002012E3C349284603F0F9
:10481800EEFF30B9C149284603F0E9FF002800F04F
:104828008B812C21284603F089FF451C284603F07C
:104838002BFF51EC100B03F0D7FE07EE900AFCEEAD
:10484800E77A42F2107117EE902A6426B2FBF1F370
:10485800237001FB1323B3FBF6F36370B2FBF6F38B
:1048680006FB1322A27003F073FB9FEDA91B41EC1A
:10487800100B02F0CBFDAA4B002251EC100B03F0F9
:10488800BBFB03F091FE2C21E080284603F056FF85
:1048980043782C2B804600F1010752D0394602227A
:1048A8000DF1100901A803F08FFF4FF0000A01A8CD
:1048B80009F80AAD03F0EFFE9A4D0222454308F1CC
:1048C800030101A808F1060703F07EFF0422394618
:1048D800484603F079FF01A88DF80AA003F0DBFE33
:1048E80032235843032390FBF3F007EE900A2B186A
:1048F800B8EEE77A23618C4B95FBF3F307EE903A19
:10490800DFED8A6A9FED8A6AF8EEE77AE7EE267AA3
:104918009FED887AC4ED027AC7EE876AFDEEE66AF3
:1049280016EE903A5E4307EE106AB8EEC77AF8EED4
:10493800E66A77EEC77A87EE867A77EE266AC4ED5E
:10494800066A2C21384603F0F9FE034601305A78EE
:104958002C2A12D0532A02BFD4ED067AF1EE677AD8
:10496800C4ED067A5B784E2B05D0532B03D02C2B45
:104978007FF449AF002384F838302C2103F0DEFEA1
:1049880043782C2B074600F1010650D0314603220C
:1049980001A803F019FF4FF0000801A88DF807805F
:1049A80003F079FE5F4D02224543391D01A8FE1D23
:1049B80003F00AFF042231460DF1060003F004FF5C
:1049C80001A88DF80A8003F066FE322358430323BA
:1049D80090FBF3F007EE900A2B18B8EEE77A6361C4
:1049E800514B95FBF3F307EE903ADFED506A9FEDDC
:1049F800506AF8EEE77A6423E7EE267ADFED4D6A2F
:104A0800C4ED037A87EEA67ABDEEC77A17EE102AB0
:104A1800534306EE903AF8EEE66AB8EEC77A77EEB8
:104A2800E67AC7EE866A36EE877A84ED077A2C2115
:104A3800304603F083FE034601305A782C2A12D000
:104A4800572A02BFD4ED077AF1EE677AC4ED077AE8
:104A58005B78572B05D0452B03D02C2B7FF4D3AE96
:104A6800002384F839302C2103F068FE43782C2B7E
:104A780000F1010504D0284603F009FE84F83C0043
:104A880028462C2103F05AFE43782C2B00F101050F
:104A980004D0284603F0FBFD84F83D0028462C216D
:104AA80003F04CFE43782C2B00F1010507D0284673
:104AB80003F0EAFD51EC100B03F096FD6063284605
:104AC8002C2103F03BFE43782C2B00F1010507D085
:104AD800284603F0D9FD51EC100B03F085FD606208
:104AE8002C21284603F02AFE2C21013003F026FE53
:104AF80043782C2B00F09B81013003F0C5FD51EC6D
:104B0800100B03F071FD206291E100BFAFF300804C
:104B1800000000000000F03FB4A50D00BBA50D008B
:104B280000408F4080969800A08601009C53C936AB
:104B3800000070420000C842C149284603F057FEF1
:104B480030B9C049284603F052FE00283FF45BAE56
:104B58002C21284603F0F2FD451C284603F094FD5D
:104B680051EC100B03F040FD07EE900AFCEEE77ADB
:104B780042F2107117EE902AB2FBF1F3237001FB99
:104B880013236421B3FBF1F36370B2FBF1F301FB70
:104B98001322A27003F0DCF99FEDA71B41EC100B68
:104BA80002F034FCA84B002251EC100B03F024FA5D
:104BB80003F0FAFC2C21E080284603F0BFFD43787F
:104BC800412B01D1012303E0562B7FF41CAE0023B7
:104BD80084F83B302C21013003F0B0FD43782C2BB6
:104BE800074600F1010651D0314602220DF11008A6
:104BF80001A803F0E9FD4FF0000901A808F80A9D93
:104C080003F049FD914D02224543F91C01A8BE1D40
:104C180003F0DAFD04223146404603F0D5FD01A831
:104C28008DF80A9003F037FD32235843032390FB95
:104C3800F3F007EE900A2B18B8EEE77A2361844B5D
:104C480095FBF3F307EE903ADFED826A9FED826AF7
:104C5800F8EEE77A6423E7EE267ADFED806AC4EDA2
:104C6800027A87EEA67ABDEEC77A17EE102A53436A
:104C780006EE903AF8EEE66AB8EEC77A77EEE67A8C
:104C8800C7EE866A36EE877A84ED067A2C2130469E
:104C980003F054FD034601305A782C2A12D0532AC7
:104CA80002BFD4ED067AF1EE677AC4ED067A5B7836
:104CB8004E2B05D0532B03D02C2B7FF4A4AD00230F
:104CC80084F838302C2103F039FD43782C2B074623
:104CD80000F1010650D03146032201A803F074FD0B
:104CE8004FF0000801A88DF8078003F0D4FC574D59
:104CF80002224543391D01A8FE1D03F065FD04226B
:104D080031460DF1060003F05FFD01A88DF80A8019
:104D180003F0C1FC32235843032390FBF3F007EE62
:104D2800900A2B18B8EEE77A6361494B95FBF3F3C9
:104D380007EE903ADFED476A9FED476AF8EEE77AAB
:104D48006423E7EE267ADFED456AC4ED037A87EE41
:104D5800A67ABDEEC77A17EE102A534306EE903AAC
:104D6800F8EEE66AB8EEC77A77EEE67AC7EE866AB4
:104D780036EE877A84ED077A2C21304603F0DEFC84
:104D8800034601305A782C2A12D0572A02BFD4ED94
:104D9800077AF1EE677AC4ED077A5B78572B05D06E
:104DA800452B03D02C2B7FF42EAD002384F839300B
:104DB8002C2103F0C3FC43782C2B00F1010507D00C
:104DC800284603F061FC51EC100B03F00DFCA062C7
:104DD80028462C2103F0B2FC43782C2B00F1010566
:104DE80007D0284603F050FC51EC100B03F0FCFBF5
:104DF800E0622C21284603F0A1FC43782C2B16D026
:104E0800013003F041FC51EC100B03F0CDFB42F2F2
:104E18001072B0FBF2F3637102FB13036422B3FB5D
:104E2800F2F32371B0FBF2F302FB1300E0700120F0
:104E380004B0BDE8F08700BF000000000000F03FAC
:104E4800C2A50D00C9A50D0000408F4080969800AE
:104E5800A08601009C53C936000070420000C84279
:104E680000F018BB10B503682F2B044604D9074A75
:104E780000210A2000F0C6FC23681F2B83BF03F023
:104E88001F03236002484FF0A04010BD5D550D0080
:104E98000003005007B502AB43F8040D1846FFF7AE
:104EA800E1FF019A01239340C0F8083503B05DF88B
:104EB80004FB07B502AB43F8040D1846FFF7D2FF11
:104EC800D0F81035019823FA00F000F0010003B083
:104ED8005DF804FB10B5037201238171C27103747C
:104EE80010BD000010B500210446807902F0EAF8F0
:104EF800074AA37912681B01D118D05C4B7803F0DC
:104F08001F0343EA4010FFF7C5FF0023E36010BD0D
:104F18007CE30320000000002DE9F74F10EE100A93
:104F2800CDED000A03F014F8DDED000A044610EE9A
:104F3800900A0D4603F00CF8224606460F462B460B
:104F48002046294603F058F8324682468B463B46AF
:104F58003046394603F050F847A3D3E90023CDE99A
:104F680000012046294603F047F845A3D3E900236A
:104F780002F08EFE44A3D3E90023804689463046DA
:104F8800394603F039F802460B464046494602F0D6
:104F980081FE3FA3D3E9002380468946204629465F
:104FA80003F02AF832463B4603F026F802460B4641
:104FB8004046494602F06EFE37A3D3E900238046F7
:104FC80089465046594603F017F802460B464046B4
:104FD800494602F05FFE32A3D3E9002380468946A2
:104FE800DDE9000103F008F802460B464046494651
:104FF80002F050FE2CA3D3E9002380468946504690
:10500800594602F0F9FF32463B4602F0F5FF0246E8
:105018000B464046494602F03DFE25A3D3E900234E
:1050280006460F462046294602F0E6FFDDE9002342
:1050380002F0E2FF02460B463046394602F02AFEED
:105048001DA3D3E9002304460D465046594602F0F5
:10505800D3FFDDE9002302F0CFFF02460B462046CE
:10506800294602F017FE03F0BFFA00EE100A03B05B
:10507800BDE8F08FAFF30080ECD8CE186264004032
:105088008D976E1283304540CD495AB76249244006
:10509800F847C607C9C4CCBFCC169C03FC017CBF2B
:1050A800248CD100FF10ACBFE5DC6087B521543FEC
:1050B800DA303301F9F14B3F01BDD3117EB1C0BEE7
:1050C800F0B52DED028B10EE100A83B0B0EE608AB9
:1050D80002F03EFFDFED287A88EE277A04460D4677
:1050E80017EE100A02F034FF41EC100B02F0FAF947
:1050F8001DA3D3E90023204629468DED000B02F0BD
:105108007BFF1BA3D3E9002306460F46204629460A
:1051180002F0C0FD02460B463046394603F096F8C9
:105128009DED000B53EC102B02F0B4FD10A3D3E956
:10513800002306460F4602F05FFF324604460D463E
:105148003B4609A1D1E9000102F0A2FD02460B4647
:105158002046294603F07AF803F046FA00EE100AD2
:1051680003B0BDEC028BF0BD4C378941604531403E
:105178006666666666B66D400000C8422DE9F74F60
:10518800044600F0EFF9E368834284BF0023E3603C
:10519800237C33B9E368C01AB0F5FA6F01D2012055
:1051A800A8E00025554E257400F0DCF9A379326893
:1051B800E0601B01D1182571E570A5706570257038
:1051C800D05C4B7803F01F0343EA4010FFF762FE00
:1051D800FA2001F025F80121A07901F073FFA379E5
:1051E80032681B01D118D25C4B7802A803F01F0368
:1051F80043EA421340F8043DFFF734FE019B4FF0A9
:10520800010808FA03F3C0F80C35142001F008F877
:1052180001F01AFCA37932681B01D118D05C4B78D5
:1052280003F01F0343EA4010FFF734FE282000F084
:1052380091F92946A07901F045FF2F464FF0000B60
:10524800A37932681B01D11812F803A04B7803F038
:105258001F0343EA4A1A5046FFF72BFE5046FFF752
:1052680028FE80455FFA8BF908D101200BF1010B6C
:1052780000F070F9BBF1FF0FE2D1D946A37932688B
:105288001B01D11812F803804B7803F01F0343EA7F
:1052980048184046FFF70DFE4046FFF70AFEB9F1F1
:1052A800FF0F5FFA80F814D0032D0ED9EB070CD44A
:1052B800FA080137A35C5B00DBB2A354217A4945A5
:1052C8003CBF43F00103A354FFB20135EDB2552DA5
:1052D800B4D101F0BBFB272F0BD922786378217951
:1052E8001344A2781344E2781344DBB299423FF4A2
:1052F80056AF002003B0BDE8F08F00BF7CE3032069
:1053080010B50446FFF73AFF30B3E3790B2B04D00E
:1053180022D3153B012B06D91EE0A37800EE103AE4
:10532800B8EE400A10BDA378DFED0D6A03F07F02E6
:1053380007EE102AE27807EE902AB8EEC77AF8EE60
:10534800E77A1B06E7EE267AB2EE047A87EE870A3A
:1053580004D5B1EE400A10BD9FED020A10BD00BF92
:10536800000080430000C07F08B5FFF7C9FFF2EED8
:10537800027A60EE277AB1EE047A87EE870ADFEDCB
:10538800027A30EE270A08BD0000004210B5044634
:10539800FFF7F4FEF8B1E3790B2B16D01BD3153BBE
:1053A800012B18D82378DFED0D6A07EE103A6378E1
:1053B80007EE903AB8EE477AF8EEE77AE7EE267A03
:1053C800B2EE047A87EE870A10BD237800EE103A11
:1053D800B8EE400A10BD9FED020A10BD00008043E0
:1053E8000000C07FFFF7D2BF10B52DED048B044637
:1053F800FFF786FFF2EE028AB0EE408A2046FFF7FA
:10540800C5FF68EE287AB1EE049A87EE897A2046BD
:105418009FED088AF0EE400A37EE080AFFF77CFD98
:1054280030EE480A20EE090A80EE280ABDEC048B0B
:1054380010BD00BF0000004210B52DED028B0446E0
:10544800FFF75EFF2046B0EE408AFFF79FFFF0EEC1
:10545800400AB0EE480ABDEC028B2046BDE8104079
:10546800FFF72EBE08B500F015F8014B186008BD0F
:105478007CE3032008B5024B1B689B68019308BDB9
:105488006802030008B5024B1B68DB68019308BD7E
:105498006802030008B5024B1B681B68019308BD2E
:1054A8002C02030008B5024B1B689B68019308BDDA
:1054B8002C02030008B5024B1B681B6A019308BD48
:1054C8002C02030008B5024B1B685B6A019308BDF8
:1054D8002C02030008B5024B1B68DB69019308BD69
:1054E8003002030008B5024B1B681B6A019308BD14
:1054F8003002030008B5024B1B681B69019308BD05
:105508006C02030008B5024B1B685B69019308BD78
:105518006C02030008B5024B1B689B69019308BD28
:105528006C02030008B5024B1B685B6D019308BD54
:105538006C02030008B5024B1B689B6D019308BD04
:105548006C02030008B5024B1B685B68019308BD39
:105558001802030008B5024B1B68DB68019308BDFD
:105568001802030008B5024B1B685B69019308BD6C
:105578001802030008B5024B1B689B68019308BD1D
:105588004802030008B5024B1B681B69019308BD5C
:105598004802030008B5024B1B685B69019308BD0C
:1055A8004802030008B5024B1B681B6B019308BD3A
:1055B8004802030008B5024B1B685B6C019308BDE9
:1055C8004802030008B5024B1B68DB6C019308BD59
:1055D8004802030008B5024B1B685B6D019308BDC8
:1055E8004802030008B5024B1B685B69019308BDBC
:1055F8006402030008B5024B1B689B69019308BD50
:105608006402030008B5024B1B681B6A019308BDBE
:105618006402030008B5024B1B685B6A019308BD6E
:105628006402030008B5024B1B689B6A019308BD1E
:105638006402030008B5024B1B681B68019308BD90
:105648003C02030008B5024B1B68DB68019308BDE8
:105658003C02030008B5024B1B681B69019308BD97
:105668003C02030008B5024B1B685B69019308BD47
:105678003C02030008B5024B1B689B69019308BDF7
:105688003C02030008B5024B1B68DB69019308BDA7
:105698003C02030008B5024B1B681B6A019308BD56
:1056A8003C02030008B5024B1B689B6A019308BDC6
:1056B8003C02030008B5024B1B68DB6A019308BD76
:1056C8003C02030008B5024B1B681B6A019308BD26
:1056D8002802030008B5024B1B685B6A019308BDEA
:1056E8002802030008B5024B1B689B6A019308BD9A
:1056F8002802030008B5024B1B68DB6A019308BD4A
:105708002802030008B5024B1B681B6B019308BDF8
:105718002802030008B5024B1B685B6B019308BDA8
:105728002802030008B5024B1B681B6C019308BDD7
:105738002802030008B5024B1B685B68019308BD8B
:105748003802030008B5024B1B689B69019308BD2A
:105758003802030008B5024B1B68DB69019308BDDA
:105768003802030008B5024B1B68DB6A019308BDC9
:105778003802030008B5024B1B685B6B019308BD38
:105788003802030008B5024B1B689B6B019308BDE8
:105798003802030008B5024B1B681B68019308BD5B
:1057A8004C02030008B5024B1B685B68019308BDF7
:1057B8004C02030008B5024B1B681B69019308BD26
:1057C8004C02030008B5024B1B685B69019308BDD6
:1057D8004C02030008B5024B1B689B69019308BD86
:1057E8004C02030008B5024B1B68DB69019308BD36
:1057F8004C02030008B5024B1B681B6A019308BDE5
:105808004C02030008B5024B1B685B6B019308BD93
:105818006002030008B5024B1B685B68019308BD72
:105828002002030008B5024B1B685B69019308BDA1
:105838002002030008B5024B1B68DB6C019308BD0E
:105848002002030008B5024B1B685B6D019308BD7D
:105858002002030008B5034B1B68D3F88830019376
:1058680008BD00002002030008B5034B1B68D3F8ED
:105878009430019308BD00002002030008B5024BD4
:105888001B685B68019308BD4002030008B5024B22
:105898001B689B68019308BD4002030008B5024BD2
:1058A8001B68DB68019308BD4002030008B5024B82
:1058B8001B681B69019308BD4002030008B5024B31
:1058C8001B685B69019308BD4002030008B5024BE1
:1058D8001B689B69019308BD4002030008B5024B91
:1058E8001B68DB69019308BD4002030008B5024B41
:1058F8001B681B6A019308BD4002030008B5024BF0
:105908001B681B6B019308BD4002030008B5024BDE
:105918001B685B6B019308BD4002030008B5024B8E
:105928001B681B68019308BD4402030008B5024BBD
:105938001B681B6A019308BD4402030008B5024BAB
:105948001B68DB6B019308BD4402030008B5024BDA
:105958001B681B68019308BD1C02030008B5024BB5
:105968001B685B68019308BD1C02030008B5024B65
:105978001B68DB69019308BD1C02030008B5024BD4
:105988001B68DB6A019308BD1C02030008B5024BC3
:105998001B681B6B019308BD1C02030008B5024B72
:1059A8001B68DB6B019308BD1C0203000022114633
:1059B8004068FFF79BBF002211464068FFF7A6BF6B
:1059C80000224068FFF79ABF002281F00101406879
:1059D800FFF784BF00231A4619464068FFF776BFD1
:1059E80000231A4619464068FFF768BF002211468F
:1059F8004068FFF75BBF002211464068FFF746BFCB
:105A0800002202214068FFF749BF00231A46406878
:105A1800FFF734BF024B03225A60024A1A607047EC
:105A280080E303203CA60D00704710B50446FEF73E
:105A380032FB204610BD000070B5084B03600446D9
:105A480000250E4640F80C5FFFF7ACFD3046267186
:105A5800FFF740FDA560204670BD00BF70A60D0091
:105A68000079FFF73FBD0000044B00204FF6FF729E
:105A7800187058809A80FFF7CDBE00BF88E30320D6
:105A880010B40468246BA4465DF8044B60470368AF
:105A98009B6C1847808E7047028FC08E101A704713
:105AA80013B502AB026803F8011DD4681946012238
:105AB800A04702B010BD10B503681B69044698479B
:105AC80028B1E38EE26B591CE186D05C10BD4FF023
:105AD800FF3010BD10B503681B690446984718B11C
:105AE800E38EE26BD05C10BD4FF0FF3010BD704705
:105AF80010B403460846DC6BD98E1A8F0368521A15
:105B0800DB6821445DF8044B1847A0F11000FFF74B
:105B1800EFBFF0B503688DB01C265B6A04460F46DC
:105B28001546984701233246002105A8029302F042
:105B3800D4FD8DF8146038460A268DF81560FFF7F5
:105B480071FD1122ADF8160002213046FFF71AFE4A
:105B58000028606124DB0422009202AB40F6FF714A
:105B6800FFF7F0FDE0B995B10390ADF8100003A977
:105B7800E8B2FFF7C7FC98B90623009341F20B027D
:105B880003AB40F6FF716069FFF7DCFD40B91C22EA
:105B980005A96069FFF7CEFD10B96564012004E02E
:105BA800236820465B6A984700200DB0F0BD10B509
:105BB80004464069002801DBFFF7CCFD4FF0FF33B6
:105BC80063610023E386238710BD38B5C36B0546A0
:105BD800C08E13B12C6C241A00E01C46944228BFD6
:105BE80014462246184402F06DFDEB8E2344EB86E2
:105BF800204638BD70B503681B6904460E46154635
:105C0800984788B1236820461B699847E38EE16B63
:105C18008542A8BF054619442A46304602F052FD7F
:105C2800E38E2B44E38601E04FF0FF35284670BD34
:105C380070B50446054B44F8043B01F120050646BF
:105C48000FCD0FC42B682370304670BD14A80D000B
:105C5800F0B59446026889B0976A0A4A02921D1DF7
:105C68008E4606460FCD03AC0FC42B682370BDF8D3
:105C780038300093624602AB71463046B84709B0E7
:105C8800F0BD00BF14A80D00F0B50368B0F836E009
:105C98009F6A0D4B89B000F12006044602930FCE8F
:105CA80003AD0FC533682B70A38E0093724602AB09
:105CB800E16B2046B84723680546DB6920469847CC
:105CC800284609B0F0BD00BF14A80D00F0B5437810
:105CD800022B8DB005460C46174601D1011D33E055
:105CE8000A2B35D11122002101A802F0F6FCAB687D
:105CF80043B9EB6833B94FF6FF702E69FFF782FCA2
:105D080086421FD005F1080301AE05F1180E186888
:105D18005968324603C2083373451646F7D106233D
:105D280001A906A807AE8DF8143000F0DDFD0FCEEE
:105D380004340FC43368237057B16888FFF76AFCCE
:105D4800388005E005F11401204600F002FEF3E773
:105D58000DB0F0BD2DE9F0418EB00EAB0025064622
:105D68001746084643F8345D2A462946FFF78AFB5A
:105D780000281FDB019BFBB15B69EBB102A800F0B7
:105D8800A5FD019B2A46586902A9FFF79FFF02A8B3
:105D980000F0BCFD80B1336803ADD3F838800B4BFD
:105DA80008930FCD09AC0FC42B6823703A4608A995
:105DB8003046C047044601E04FF0FF340198FFF732
:105DC80059FB20460EB0BDE8F08100BF14A80D00B5
:105DD8002DE9F047D0F81480B8F1000F8CB00546D3
:105DE8000C461746994600DB11B94FF0FF3035E0F5
:105DF8004FF01C0A05AE52460021304602F06DFCF9
:105E0800CDF808A0B9F1000F14D04FF47A72B9FB9D
:105E1800F2F1039102FB11914A4308230492009383
:105E280041F2060203AB40F6FF714046FFF78AFCD9
:105E380008B113E0082002AB0193214603460096FF
:105E48003A466869FFF78EFC041E06DB05F134024A
:105E580005F11C013046FFF739FF20460CB0BDE8BC
:105E6800F08738B5054614462B7D062B084611D118
:105E78001C2313700A235370FFF7D4FB083424F84B
:105E8800060C2B1D143553F8042B44F8042BAB4295
:105E9800F9D138BD042B0AD1102313700223537093
:105EA800FFF7C0FB60806868FFF7ACFB606038BD37
:105EB8002DE9F0438BB003AC1C25994606460F46E6
:105EC800904600212A46204602F007FC2246BDF8EB
:105ED80048104846FFF7C5FF9DF80D3043B18DE8DF
:105EE80030000023424639467069FFF743FC01E061
:105EF8004FF0FF300BB0BDE8F083F0B591B00C4621
:105F080006460021154609A81C221F4602F0E5FB9B
:105F180009AA00212046FFF7A4FF9DF82530022B8F
:105F28002ED1002305930A9B0493DDB102A92846CC
:105F3800FFF7F0FAB0B910A941F8340D0298FFF74D
:105F4800F1FA60B9039B53B1DA68126851780229F3
:105F580003D152680AB1059201E01B68F3E7039880
:105F6800FFF7E8FA002F4FF00803009318BF032249
:105F780004AB08BF042200213046FFF7E3FB1EE014
:105F88000A2B1AD104AC14220021204602F0A5FBEA
:105F98000BAB0FCB002F84E80F004FF014030093D6
:105FA80018BF0C22234608BF0D2229213046089528
:105FB800FFF7C8FB00EAE07001E04FF0FF3011B0D6
:105FC800F0BD000038B54FF47A7383600B4B03F1D2
:105FD80008026C33002503614FF0FF330446456027
:105FE800026043611C3000F071FC4FF40073E586D9
:105FF8002587E56323646564204638BD78A60D00CF
:1060080010B590F8483004461BB1C06B08B1FEF7D4
:1060180042F80023E36384F848302364E386238747
:1060280010BD70B5044616460D46FFF7E9FF00237C
:10603800E66323643EB935B12846FEF72AF8012302
:10604800E06384F84830E36B03B12564206C0030CA
:1060580018BF012070BDF8B51746C26B05460C463F
:106068001AB9016C09B1FFF7DCFF04340FCC05F154
:1060780020060FC6236833700023AF86EB862B8774
:10608800286CF8BD70B5C26B04461AB9016C09B129
:10609800FFF7C7FFE16B0023E386238741B1226C3A
:1060A80032B12068056B2046A8470028C8BF208762
:1060B800236820461B69BDE87040184710B5074B98
:1060C80003F108026C33044602600361FFF76FFDB9
:1060D8002046FFF795FF204610BD00BF78A60D00AB
:1060E80010B50446FFF7EAFF2046FDF7D4FF204627
:1060F80010BD02464069002804DB012392F84420C1
:10610800FFF7FBBE4FF0FF307047F8B506460D4667
:106118008F180024BD420CD0336815F8011B9B680A
:1061280030469847002801DB0444F3E7002C08BFF9
:1061380004462046F8BD70B505460C46084649B1E8
:1061480002F025FB2B68024621462846DB68BDE89D
:106158007040184770BD08B5FFF7EDFF08BD03682C
:106168009B68184738B50D210546FFF7F8FF0A2147
:1061780004462846FFF7F3FF204438BD38B50546E6
:10618800FFF7D9FF04462846FFF7ECFF204438BD47
:1061980030B58BB00B4600218DF82410012A98BF2A
:1061A8000A220DF12304B3FBF2F505FB123303F0C9
:1061B800FF03092B94BF30333733DBB2214604F891
:1061C80001392B46002DEED1FFF7B5FF0BB030BDDE
:1061D80010B42AB903685DF8044B9B68C9B2184724
:1061E800D2B25DF8044BFFF7D3BFFFF7F1BF0B68DE
:1061F800036013B15A6801325A607047014B024A72
:106208001A60704790E303209BA70D00024B1A68A1
:10621800024B1A60704700BFECDF032094E30320B1
:106228000021FFF7FFBA10B58368044613B10322B3
:1062380001469847204610BD10B50446FFF7F3FF06
:10624800204610BD13B50B46044603C88DE803006D
:1062580093E8030084E803009DE8030083E8030053
:1062680002B010BD0348044A04490023836000F0CB
:106278007DBF00BF98E3032094E0032041620D0036
:1062880008B50C4B33B100F0B9FB03681B6998479C
:10629800002809DC084B63B100F078FC03681B692F
:1062A8009847002803DC08BDAFF30080F2E7AFF39E
:1062B800008008BD000000000000000008B5FFF7DE
:1062C800DFFFFFF74FF9014B186008BD34E70320E3
:1062D80007B5002300931A466FF07701FFF7C4FA59
:1062E80003B05DF804FB000007B543880A2B08D00B
:1062F800502B09D1094B1B683BB103B05DF804EB87
:106308001847FFF7E5FF06E0002300931A466FF0F1
:106318007701FFF7A9FA03B05DF804FBA8E30320AF
:1063280010B5FFF70FF9044602F0E0F9074B13B177
:106338002046AFF3008000210448FFF7FFFA002150
:106348000348BDE81040FFF785BA00BF0000000011
:10635800F1620D0070470020704710B50446FDF744
:106368009AFE204610BD08B508B1FFF7F6FF08BD34
:1063780038B5C468D4B12378022B02D1E068FFF79E
:10638800EDFA65682DB12846FFF74DFF2846FDF761
:1063980082FEA5682DB12846FFF745FF2846FDF780
:1063A8007AFE2046BDE83840FDF775BE38BD13B506
:1063B800044691E8050000234B600B602060626092
:1063C80001A801930093FDF761FF204602B010BDBC
:1063D800F7B50C4602AD54F8043B45F8083D0646AF
:1063E8000F4601A82146FFF702FF29463046FFF76E
:1063F800DEFF01A8FDF74AFF2046FDF747FF3846B4
:10640800FDF749FE304603B0F0BD826810B50AB901
:1064180000F0B1FEC368BDE81040184708B5006831
:1064280000F11001FFF7F1FF08BD826810B50AB945
:1064380000F0A1FEC368BDE81040184708B5006821
:1064480000F11001FFF7F1FF08BD38B500238360A4
:106458008B6804460D462BB102229847EB68E3602F
:10646800AB68A360204638BD2DE9F0414FF69C7318
:1064780086B00468B1F904208B8000230F688DF87A
:1064880000300B604FF00200D4E84F1F994203D14F
:10649800C4E8450F002DF7D102D08DF800106AE04E
:1064A80014F10C051EBFE76022821F460123BFF3CB
:1064B8005F8F0020637004F10803BFF35F8F53E818
:1064C800006F43E80002002AF9D1BFF35F8F002E66
:1064D80051D0FFF7AFF920B129463046FFF795FFB5
:1064E80043E031466846FFF7B0FFE068B4F9105062
:1064F80008B102F031F904901020ADF81450FDF7FE
:10650800C6FD054630B34FF00008C0F808801820D3
:10651800FDF7BDFD0446C0B1C0F8088001466846D5
:10652800FFF790FE029BA268A360039B0292E268B9
:10653800E360BDF81430A3824FF69C73ADF81430B5
:10654800049B03922361CDF810800E4BEB600E4B39
:106558002C60AB600498FFF701FA6846FFF763FE0A
:10656800002229460948FFF76DF93046FFF75BFE20
:106578003046FDF790FD3846FFF7F0F906B0BDE864
:10658800F08100BF25640D0081660D00E16B0D00F0
:106598002DE9F04F8BB007AD4FF0000B064699463A
:1065A80014200C230F4690469DF850A0C5F804B05F
:1065B800C5F808B00793FDF76AFD044638B180F8BE
:1065C80000B080F801B0C0F804B0C0F808B00023EB
:1065D800102003940493FDF75AFD28B1012343606A
:1065E8008360234B0360C4600490224B0893082007
:1065F800FDF74DFD044628B1039B40F8043B04A970
:10660800FFF7F5FD00955FFA8AF34A46414638469A
:106618000994FFF78BF9B8B9039B5B7803F0FF0285
:1066280093B94FF69C7305A903A80592ADF81830E5
:10663800FFF71AFF0598FFF791F905A80999FFF7E1
:10664800C7FE06A8FDF722FE039B059304A906A82A
:10665800FFF7CDFD05A93046FFF7A9FE06A8FDF70F
:1066680015FE04A8FDF712FE30460BB0BDE8F08F0A
:10667800F8A70D00E9670D00022AF8B5044606D010
:10668800032A17D0012A20D10B6803601DE01820C7
:106698000E68FDF7FCFC054650B13146FFF7D5FE04
:1066A8003069B6F9147008B102F056F82861AF8263
:1066B80025600AE0046844B12069FFF74FF92046D5
:1066C800FFF7B1FD2046FDF7E6FC0020F8BD38B520
:1066D800002383608B6804460D462BB1022298473D
:1066E800EB68E360AB68A360204638BD022A70B54A
:1066F800044606D0032A11D0012A17D10B6803607B
:1067080014E014200E68FDF7C2FC054620B131469E
:10671800FFF7DDFF337C2B74256007E004682CB19C
:106728002046FFF780FD2046FDF7B5FC002070BD30
:10673800F0B5002387B00C46BFF35F8F50E8006FB9
:1067480040E80032002AF9D1BFF35F8F002E3ED017
:106758001846FFF76FF8074620B121463046FFF785
:1067680064FE2EE0314601A8FFF7B1FF23788DF8CB
:1067780014301020FDF78BFC0546D0B1876014203B
:10678800FDF785FC044678B18760014601A8FFF74C
:1067980059FD039BA268A360049B0392E268E3602F
:1067A8009DF81430049223740A4BEB600A4B2C605A
:1067B800AB6001A8FFF737FD002229460748FFF71D
:1067C80041F83046FFF72FFD3046FDF764FC07B06F
:1067D800F0BD00BF45640D00F5660D00E16B0D00CE
:1067E80030B585B004460D4668461146FFF7F0FD02
:1067F8007CB124B228460DB101F0AEFF029002A987
:106808006846ADF80C40FFF72FFE0298FFF7A6F890
:106818001DE000988DF808404FF00102D0E84F3F86
:10682800A34203D1C0E8412F0029F7D102D08DF847
:1068380008300CE010F10C014FF0010318BF03738E
:10684800BFF35F8F043000F8033CFFF771FF01A826
:10685800FDF71CFD05B030BD704710B50446FDF7C7
:106868001AFC204610BDF0B5037D062B8DB00E46F0
:1068780000F104074FF0000402D000F1080518E009
:106888000CAD394605F8304D2F232A460A20FEF76D
:10689800A9FE284601F07BFF33680246DB682946DB
:1068A800304698470FE024B12E213046FFF757FCB9
:1068B800044415F8011D0A223046FFF796FCBD4234
:1068C8000444F0D120460DB0F0BD000010B5054BD2
:1068D8000446112240F8043B002101F0FEFE204648
:1068E80010BD00BF14A80D000346074A10B543F8B1
:1068F800042B01F1100251F8044B43F8044B914268
:10690800F9D10A781A7010BD14A80D00037D042B64
:1069180001D1406808E0062B0AD1436853B1836867
:1069280043B1C36833B10069003018BF0120704714
:10693800002070471846704710B59DF8084044EA93
:10694800032343EA024242EA0161042341600375DA
:1069580010BD37B50D788B784A78C97800912946EB
:10696800FFF7EAFF03B030BD41747047704700215C
:10697800007CFEF72FBF0121007CFEF72BBF007CB7
:10698800FEF720BF007CFEF715BF38B50446007C33
:106998000D46FEF717FF002801DC607C20B1294670
:1069A800207CFEF71FFF012038BD007CFEF722BFC8
:1069B80010B50446FDF76FFB204610BD10B5044620
:1069C800002363604FF47A73A360054B23600123AF
:1069D8000846217463741146FEF7DCFE204610BD9C
:1069E80028A80D000022007CFEF7DCBE10B514229A
:1069F8000446002101F071FE204610BD30B50E4D51
:106A080087B001A8FFF7F2FF296811F0010410D13F
:106A18002846FDF744FB60B101AA21460748FFF765
:106A2800CDFF2846FDF740FB054A0649034800F01C
:106A38009DFB024807B030BDACE30320B0E3032060
:106A480094E0032075690D00FEF73CBDFEF732BDEA
:106A5800002211464068FEF729BF0022114640680F
:106A6800FEF744BF002211464068FEF74FBF0022E0
:106A78004068FEF743BF002281F001014068FEF73D
:106A88002DBF00231A4619464068FEF71FBF002392
:106A98001A4619464068FEF711BF002211464068A1
:106AA800FEF7F4BE002202214068FEF7F7BE00237D
:106AB8001A464068FEF7E2BE38B50C4D2824224637
:106AC8000021284601F009FE4FF0FF336B602C804F
:106AD800074D042328466B60064B40F8083B2246C6
:106AE800002101F0FAFD2C8138BD00BFF4E303203A
:106AF800C4E3032058A80D00704741747047007C18
:106B0800FEF7D0BD007CFEF7A5BD007CFEF7B2BD48
:106B1800007CFEF7A7BD007CFEF7B4BD10B50446A7
:106B2800FDF7B9FA204610BD70B5457C04460E46FF
:106B380025B9007CFEF7B6FD002805DD3146207C2E
:106B4800BDE87040FEF77EBD284670BD10B504460E
:106B580008461146002262604FF47A72A260054A24
:106B680022600122207462741A46FEF763FD2046F3
:106B780010BD00BF8CA80D000023007CFEF79ABD55
:106B88000022FFF7F9BF007CFEF784BD38B50C4D35
:106B9800296811F0010411D12846FDF780FA68B17F
:106BA800084A094B09482146FFF7D0FF2846FDF758
:106BB8007BFA074A0749054800F0D8FA034838BD68
:106BC800B4E40320B8E4032030E403201CE40320E9
:106BD80094E00320016B0D0010B5836804460BB9DF
:106BE80000F0C9FAC3689847A3681BB1032221467D
:106BF800204698472046BDE81040FDF74CBA70473C
:106C0800F8B5064615460C468F18BC4206D03368C0
:106C180014F8011B9B6830469847F6E72846F8BDEC
:106C28000022007CFEF74EBD0021007CFEF752BD1D
:106C38000021007CFEF756BD0021007CFEF75ABDFE
:106C48000021007CFEF75EBD10B50446FDF723FA6F
:106C5800204610BD10B504464FF47A730846A36069
:106C68000021044B207461602360FEF75BFD204621
:106C780010BD00BFBCA80D000021007CFEF74ABD76
:106C8800002211464068FEF731BE002211464068D6
:106C9800FEF73CBE00224068FEF730BE002281F0BD
:106CA80001014068FEF71ABE00231A4619464068DB
:106CB800FEF70CBE00231A4619464068FEF7FEBDD3
:106CC800002211464068FEF7F1BD002211464068D7
:106CD800FEF7DCBD002202214068FEF7DFBD00237D
:106CE8001A464068FEF7CABD10B103685B681847CA
:106CF800704738B504460068D0B1FEF73BFCB8B918
:106D0800237C1BB9206808B1FEF73CFC656855B1C7
:106D1800AB681BB103222946284698472846FDF749
:106D2800BAF9002363602068FEF734FC002323606F
:106D380038BD000038B50B4B03600446D0F8CC01D1
:106D480008B1FDF7AAF9D4F8C4512DB12846FFF7C8
:106D5800D0FF2846FDF79FF9A06808B1FFF7C4FFE8
:106D6800204638BDE4A80D000068FEF72BBC0000E3
:106D780030B58DB004461122002101A801F0ADFC08
:106D8800062301AA09498DF814300A20FEF732FCBF
:106D980007AD01A906A8FFF7A7FD0FCD04340FC45E
:106DA8002B68237000200DB030BD00BF10A90D0066
:106DB80030B5044689B000F5E070FFF7D5FF2368C9
:106DC80083BB4C20FDF763F9054608B1FFF7FAF8D5
:106DD8002068256008B1FFF787FF206820B30022EC
:106DE8004FF49A61FFF71DF908A9002501F8195D0C
:106DF8001148FEF77FFB20689DF80720036849F2D9
:106E080069011B6A984702A8FFF760FD02A8FFF70F
:106E1800AFFF002804DB02A92068FFF76AF904E045
:106E2800054602E0002500E0044DD4F8C001FEF755
:106E3800D1FB284609B030BD1DA90D00FCFEFFFF9F
:106E48002DE9F04705468CB016460F4609B10B7878
:106E58000BB9354C64E0084601F099FC8046002ED9
:106E68005CD0304601F093FC441C08F10203234433
:106E7800B3F59A6F4FD805F5E070FFF775FF284610
:106E8800FFF796FF002840DB6846FFF71FFD6846BE
:106E9800FFF76EFF002838DBD5F800A0DAF80030DD
:106EA8000DF1040CD3F83890204B0693BCE80F0082
:106EB8000DF11C0EAEE80F00DCF800308EF8003043
:106EC80049F2690206A95046C84700281DDB00237D
:106ED80028688DF8183003680122DB6806A99847EE
:106EE8002868036808F10102DB68394698472CB125
:106EF800286803682246DB68314698472868036893
:106F08001B6C984700EAE07400E00446D5F8C0011D
:106F1800FEF760FB04E06FF0BD0401E03446A4E72F
:106F280020460CB0BDE8F087F2FEFFFF14A80D0064
:106F380038B50D4C0D4B23600025022304F5E47091
:106F48006360A560C4F8C451C4F8C851FEF732FBA9
:106F5800074BC4F8CC5123602046064A0649BDE8D1
:106F6800384000F003B900BF3CE5032048A90D00F4
:106F7800E4A80D0094E003203D6D0D0000231A469F
:106F88004068FEF77BBC002202214068FEF786BC01
:106F9800002211464068FEF779BC0022114640687D
:106FA800FEF784BC00231A4619464068FEF786BCE3
:106FB80000231A4619464068FEF788BC002281F073
:106FC80001014068FEF78ABC00224068FEF796BCC3
:106FD800002211464068FEF799BC0022114640681D
:106FE800FEF784BC70B58CB014460646FFF76EFCFD
:106FF8000CAB0022114643F8302D2046FEF742FA2A
:10700800014658BB009B4BB35A68022A0ED00A2A85
:1070180024D15C69112201A801F05FFB06238DF8D9
:10702800143001AD04F10803183405E059693046FD
:107038000431FFF78EFC11E0186859682A4603C22C
:107048000833A3421546F7D101A906A807ADFFF7F3
:107058004BFC0FCD341D0FC42B6823700098FEF72E
:1070680009FA30460CB070BD024B034A1A60002280
:107078005A6070470CE7032048A90D0010B5044674
:107088000F48FEF7EDFC28B1A4F10B03022B01D841
:10709800002010BD00F04AF8FFF7EEFD08B1012C02
:1070A800F6D9FFF773FDFFF76EFD18B1A4F10903D8
:1070B800012BEDD9232C8CBF0020012010BD00BF6F
:1070C80014E70320232838B504460D460AD8FF29BB
:1070D80008D0FFF7D3FF28B129462046BDE838403D
:1070E800FEF7E0B938BD000070B50C4C0C4E0D4DE4
:1070F80000212046FEF7A0FC20460B4C32462946CC
:1071080000F034F801212046FEF796FC3246294665
:107118002046BDE8704000F029B800BF14E70320FE
:1071280094E00320315A0D0024E7032038B50B4DB5
:10713800296811F001040FD12846FCF7B0FF58B1B7
:1071480021460748FFF786FD2846FCF7ADFF054AAC
:107158000549034800F00AF8014838BD38E703201C
:107168003CE7032094E00320076C0D000B46014622
:10717800184601F095BA08B5FEF700FC184B1A68D6
:10718800D1075CBF01221A60164B1A68D2075CBF90
:1071980001221A60144B1A68D0075CBF01221A60DA
:1071A800124B1A68D1075CBF01221A60104B1A688B
:1071B800D2075CBF01221A600E4B1A68D0075CBF69
:1071C80001221A600C4B1A68D1075CBF01221A60B1
:1071D8000A4B1A68D2075CBF01221A60704700BFC9
:1071E8006CE7032068E7032064E7032060E70320D7
:1071F8005CE7032058E7032054E7032050E7032007
:10720800244B1A68D0075CBF01221A60224B1A6807
:10721800D1075CBF01221A60204B1A68D2075CBFF5
:1072280001221A601E4B1A68D0075CBF01221A603F
:107238001C4B1A68D1075CBF01221A601A4B1A68E6
:10724800D2075CBF01221A60184B1A68D0075CBFCE
:1072580001221A60164B1A68D1075CBF01221A6016
:10726800144B1A68D2075CBF01221A60124B1A68C5
:10727800D0075CBF01221A60104B1A68D1075CBFA7
:1072880001221A600E4B1A68D2075CBF01221A60ED
:10729800704700BF9CE7032098E7032094E703208A
:1072A80090E703208CE7032088E7032084E7032086
:1072B80080E703207CE7032078E7032074E70320B6
:1072C80070E70320244B1A68D0075CBF01221A60BC
:1072D800224B1A68D1075CBF01221A60204B1A683A
:1072E800D2075CBF01221A601E4B1A68D0075CBF28
:1072F80001221A601C4B1A68D1075CBF01221A6070
:107308001A4B1A68D2075CBF01221A60184B1A6818
:10731800D0075CBF01221A60164B1A68D1075CBF00
:1073280001221A60144B1A68D2075CBF01221A6046
:10733800124B1A68D0075CBF01221A60104B1A68FA
:10734800D1075CBF01221A600E4B1A68D2075CBFD6
:1073580001221A60704700BFCCE70320C8E703206A
:10736800C4E70320C0E70320BCE70320B8E70320F5
:10737800B4E70320B0E70320ACE70320A8E7032025
:10738800A4E70320A0E70320184B1A68D1075CBFC5
:1073980001221A60164B1A68D2075CBF01221A60D4
:1073A800144B1A68D0075CBF01221A60124B1A6886
:1073B800D1075CBF01221A60104B1A68D2075CBF64
:1073C80001221A600E4B1A68D0075CBF01221A60AE
:1073D8000C4B1A68D1075CBF01221A600A4B1A6865
:1073E800D2075CBF01221A60704700BFECE7032098
:1073F800E8E70320E4E70320E0E70320DCE70320D5
:10740800D8E70320D4E70320D0E703202DE9F04391
:107418002DED028B8BB057EC106B55EC114B00F037
:10742800E9F82E4BB0EE408AF0EE608A93F90080BE
:10743800B8F1FF3F31D022462B462046294601F0BD
:1074480075F850BB32463B463046394601F06EF877
:10745800814610BB002200232046294601F034F85B
:10746800D8B11F4BCDF820900122CDE90267CDE9B4
:1074780004458DE80C00B8F1000F17D1CDE9066777
:10748800684600F0F5FBE0B1089B0BBB9DED060BD1
:107498000BB0BDEC028BBDE8F083B0EE480AF0EE0D
:1074A800680A0BB0BDEC028BBDE8F0830022002314
:1074B8001046194600F0CAFEB8F1020FCDE90601E0
:1074C800DED1FEF76BFA21230360089B002BDDD089
:1074D800FEF764FA089B0360D8E700BFF0DF0320DB
:1074E80074A90D002DE9F0432DED028B8BB055ECFE
:1074F800104B00F0B9F93A4BB0EE408AF0EE608AD2
:1075080093F90060731C0DD022462B46204629466D
:1075180001F00CF830B9002200232046294600F07B
:10752800FBFF40B1B0EE480AF0EE680A0BB0BDECC4
:10753800028BBDE8F0832B4B0890CDE90245CDE9DD
:1075480004450193DEB9284F4FF06046204629468E
:1075580000220023CDE9066700F0B6FF002837D0E7
:1075680002230093684600F083FBC8B1089BE3B987
:107578009DED060B0BB0BDEC028BBDE8F083DFF888
:1075880070904FF000082046294600220023CDE9DC
:10759800068900F099FF68B102239E420093E1D169
:1075A800FEF7FCF922230360E0E7FEF7F7F9089BF2
:1075B8000360DDE70123022E00930BD1FEF7EEF9FD
:1075C80021230360094800F057FB8DED060BCDE73A
:1075D80001230093684600F04BFB0028F2D1EDE749
:1075E800F0DF03207CA90D00FFFFEFC778A90D008D
:1075F8000000F0FF2DE9F84F53EC112B23F0004960
:1076080052EA090055EC104B25D005F000468F488A
:1076180085EA060B83451EDC50421043DFF844C25E
:1076280049EAD070604511EE108A14D8CB451F4640
:1076380010EE10AA11EE10EA10EE101A17DC28DB73
:10764800944226D313D1824BF60F03EBC60393ED76
:10765800000BBDE8F88F2046294600F0CDFC024615
:107668000B4600F0F3FD41EC100BBDE8F88FBBF5BD
:10767800801F12DABBF1000F40F0A780BAF1000FAB
:10768800534674480DDD5B00002B00F1FF30FADC37
:1076980007E045EC104BBDE8F88F4FEA2B50A0F2FD
:1076A800FF30B9F5801F0FDAB9F1000F40F0A7805D
:1076B800B8F1000F4346DFF89CC109DD5B00002BE1
:1076C8000CF1FF3CFADC03E04FEA295CACF2FF3C2A
:1076D800614B98425BDBCBF3130343F480135E4AA0
:1076E800944563DBC7F3130545F48015CCEB000024
:1076F80007E052EA040313D0E30F03EB42036100EF
:107708000138CEEB01045A1B90B1714538BF02F124
:10771800FF32002AEDDACA0F02EB43034900EFE714
:107728004B4BF60F03EBC60696ED000BBDE8F88F42
:107738007145154638BF02F1FF35002DACBFCEEBC1
:1077480001011D4655EA0103EAD0444A954208DC86
:10775800CB0F03EB450595420CF1FF3C4FEA410185
:10776800F6DD3D4B9C4554DA3B4ACCEB0202142A29
:107778005BDCC2F1200305FA03F3D1400B4315414A
:1077880045EA0601184641EC100BBDE8F88F32496E
:10779800091A1F292DDCC1F120030BFA01FB2AFA73
:1077A80003F343EA0B030AFA01F198E72A4CCCEBFE
:1077B80004041F2C15DCC4F1200209FA04F528FA88
:1077C80002F2154308FA04FE90E74FEACB23002B98
:1077D80021487FF766AF5B00002B00F1FF30FADC31
:1077E8005FE71F4DCCEB050508FA05F54FF0000ED5
:1077F8007CE71B4B1B1A0AFA03F300216FE7DFF83B
:1078080058C04FEAC9235B00002B0CF1FF3CFADC9F
:107818005EE7A5F580152E430CF2FF3C46EA0C53B3
:107828000A4643EC102BBDE8F88F1F2A07DCC2F18B
:1078380020039D40D14045EA01033546A0E7084BA7
:10784800CCEB030345FA03F3354699E7FFFFEF7FD7
:1078580080A90D00EDFBFFFF02FCFFFFFFFF0F00FB
:10786800E2FBFFFF0000F07F2DE9F04F51EC100B19
:10787800B1F5801F85B00B4659DA10EE102A21F0B9
:107888000044224300F0F8800029C0F280810022E1
:10789800DD4BDE4C00F0B0FB0B46A3426FF0350227
:1078A8004ADCC3F3130505F5152404F6647404F4DF
:1078B800801686F07F541B1584F44014A3F2FF331E
:1078C80044EA05019C180022D14B00F0E1F9AB1CF9
:1078D800C3F31303022B04EB165482468B464FF076
:1078E800000232DC002300F0EFFD002800F0CF801A
:1078F800002C00F05881204600F018FBACA3D3E917
:10790800002306460F4600F077FBABA3D3E900231C
:1079180004460D463046394600F06EFB02460B46DB
:107928002046294600F0B6F941EC100B0AE0B74CA6
:10793800A3424FF00002B4DD02460B4600F0AAF95C
:1079480041EC100B05B0BDE8F08F4FF0804300F01C
:10795800A1F902460B465046594600F077FC064608
:1079680020460F4600F0E2FA3246CDE900013B46D8
:1079780030463946CDE9026700F03EFB02460B4629
:107988008046894600F038FB8DA3D3E900230646DC
:107998000F4600F031FB8CA3D3E9002300F07AF9FD
:1079A80032463B4600F028FB89A3D3E9002300F0C8
:1079B80071F932463B4600F01FFB87A3D3E9002349
:1079C80000F068F942464B4600F016FB84A3D3E961
:1079D8000023804689463046394600F00DFB82A3D5
:1079E800D3E9002300F056F932463B4600F004FB89
:1079F8007FA3D3E9002300F04DF932463B4600F05F
:107A0800FBFA0B4602464946404600F043F9A5F505
:107A1800C223C5F5D725A3F27A4351351D43002D5E
:107A2800804689465CDD00227A4B5046594600F074
:107A3800E3FA52465B4600F0DFFA06460F46002C92
:107A48006ED132463B464046494600F023F9DDE90F
:107A5800022300F0D1FA02460B463046394600F0C0
:107A680017F902460B465046594600F011F941EC09
:107A7800100B05B0BDE8F08F0022002300206649F6
:107A880000F0E4FB41EC100B05B0BDE8F08F5AA301
:107A9800D3E900235046594600F0AEFA02460B4699
:107AA80000205C4900F0F4F8524606460F465B4653
:107AB8005046594600F0A0FA02460B463046394671
:107AC80000F09AFA06460F46002C40F0A7800246BE
:107AD8000B465046594600F0DBF841EC100B31E7F5
:107AE800002C00F0AF8032A3D3E90023DDE90001C8
:107AF80000F082FA42464B4604460D465046594627
:107B080000F0C6F8DDE9022300F076FA2AA3D3E9EB
:107B1800002306460F46DDE9000100F06DFA21E07A
:107B280023A3D3E90023DDE9000100F065FA32461A
:107B38003B4604460D464046494600F0ABF8DDE9B1
:107B4800022300F059FA1CA3D3E900238046894692
:107B5800DDE9000100F050FA02460B46404649466E
:107B680000F098F802460B463046394600F090F887
:107B780052465B4600F08CF802460B4620462946E2
:107B880000F086F841EC100B05B0BDE8F08F10EE60
:107B9800102A0B4600F07CF80022002300F056FB68
:107BA80041EC100BCEE69FED160BCBE6AFF3008051
:107BB8000000E0FE422EE63F763C7935EF39EA3D9B
:107BC80044523EDF12F1C23FDE03CB966446C73F04
:107BD800599322942449D23F935555555555E53F1D
:107BE8009FC678D0099AC33FAF788E1DC571CC3F28
:107BF80004FA97999999D93F555555555555D53FF3
:107C0800000000000000000000005043FFFFEF7F6D
:107C18000000F03F0000E03F000050C3204600F0A5
:107C280085F90FA3D3E900238046894600F0E4F9DB
:107C38000DA3D3E9002304460D464046494600F00B
:107C4800DBF98FE702460B465046594600F020F80C
:107C5800DDE9022300F0D0F903E700BFAFF30080AD
:107C68000000E0FE422EE63F763C7935EF39EA3DEA
:107C780000207047000000009FED010B704700BF17
:107C8800000000000000F87F81F0004102E000BF22
:107C980083F0004330B54FEA41044FEA430594EAC4
:107CA800050F08BF90EA020F1FBF54EA000C55EAFF
:107CB800020C7FEA645C7FEA655C00F0E2804FEAD0
:107CC8005454D4EB5555B8BF6D420CDD2C4480EAB2
:107CD800020281EA030382EA000083EA010180EAE2
:107CE800020281EA0303362D88BF30BD11F0004F30
:107CF8004FEA01314FF4801C4CEA113102D0404266
:107D080061EB410113F0004F4FEA03334CEA1333A0
:107D180002D0524263EB430394EA050F00F0A780B8
:107D2800A4F10104D5F1200E0DDB02FA0EFC22FAB3
:107D380005F2801841F1000103FA0EF2801843FAA7
:107D480005F359410EE0A5F120050EF1200E012A98
:107D580003FA0EFC28BF4CF0020C43FA05F3C018D6
:107D680051EBE37101F0004507D54FF0000EDCF14F
:107D7800000C7EEB00006EEB0101B1F5801F1BD3F8
:107D8800B1F5001F0CD349085FEA30004FEA3C0CFC
:107D980004F101044FEA445212F5800F80F09A80F2
:107DA800BCF1004F08BF5FEA500C50F1000041EBF6
:107DB800045141EA050130BD5FEA4C0C404141EBFA
:107DC800010111F4801FA4F10104E9D191F0000F21
:107DD80004BF01460020B1FA81F308BF2033A3F1A4
:107DE8000B03B3F120020CDA0C3208DD02F1140C9B
:107DF800C2F10C0201FA0CF021FA02F10CE002F1D6
:107E08001402D8BFC2F1200C01FA02F120FA0CFCCE
:107E1800DCBF41EA0C019040E41AA2BF01EB045117
:107E2800294330BD6FEA04041F3C1CDA0C340EDC15
:107E380004F11404C4F1200220FA04F001FA02F358
:107E480040EA030021FA04F345EA030130BDC4F116
:107E58000C04C4F1200220FA02F001FA04F340EA0B
:107E68000300294630BD21FA04F0294630BD94F0BC
:107E7800000F83F4801306BF81F480110134013DA3
:107E88004EE77FEA645C18BF7FEA655C29D094EA14
:107E9800050F08BF90EA020F05D054EA000C04BF92
:107EA8001946104630BD91EA030F1EBF002100207D
:107EB80030BD5FEA545C05D14000494128BF41F01C
:107EC800004130BD14F580043CBF01F5801130BD80
:107ED80001F0004545F0FE4141F470014FF000000B
:107EE80030BD7FEA645C1ABF194610467FEA655CBC
:107EF8001CBF0B46024650EA013406BF52EA03355E
:107F080091EA030F41F4002130BD00BF90F0000F4B
:107F180004BF0021704730B54FF4806404F1320487
:107F28004FF000054FF0000150E700BF90F0000F40
:107F380004BF0021704730B54FF4806404F1320467
:107F480010F0004548BF40424FF000013EE700BF37
:107F580042004FEAE2014FEA31014FEA02701FBFC7
:107F680012F07F4393F07F4F81F06051704792F099
:107F7800000F14BF93F07F4F704730B54FF4607413
:107F880001F0004521F0004120E700BF50EA01025E
:107F980008BF704730B54FF000050AE050EA01020B
:107FA80008BF704730B511F0004502D5404261EB7B
:107FB80041014FF4806404F132045FEA915C3FF4BC
:107FC800DCAE4FF003025FEADC0C18BF03325FEA55
:107FD800DC0C18BF033202EBDC02C2F1200300FA0A
:107FE80003FC20FA02F001FA03FE40EA0E0021FA2F
:107FF80002F11444C1E600BF70B54FF0FF0C4CF419
:10800800E06C1CEA11541DBF1CEA135594EA0C0FCE
:1080180095EA0C0F00F0DEF82C4481EA030621EA09
:108028004C5123EA4C5350EA013518BF52EA033544
:1080380041F4801143F4801338D0A0FB02CE4FF0F6
:108048000005E1FB02E506F00042E0FB03E54FF026
:108058000006E1FB03569CF0000F18BF4EF0010E1E
:10806800A4F1FF04B6F5007F64F5407404D25FEA1A
:108078004E0E6D4146EB060642EAC62141EA5551CD
:108088004FEAC52040EA5E504FEACE2EB4F1FD0C0F
:1080980088BFBCF5E06F1ED8BEF1004F08BF5FEA8D
:1080A800500E50F1000041EB045170BD06F000463F
:1080B80046EA010140EA020081EA0301B4EB5C04EC
:1080C800C2BFD4EB0C0541EA045170BD41F48011E4
:1080D8004FF0000E013C00F3AB8014F1360FDEBF09
:1080E800002001F0004170BDC4F10004203C35DAE5
:1080F8000C341BDC04F11404C4F1200500FA05F368
:1081080020FA04F001FA05F240EA020001F0004208
:1081180021F0004110EBD37021FA04F642EB06017E
:108128005EEA430E08BF20EAD37070BDC4F10C04A8
:10813800C4F1200500FA04F320FA05F001FA04F26C
:1081480040EA020001F0004110EBD37041F1000158
:108158005EEA430E08BF20EAD37070BDC4F1200563
:1081680000FA05F24EEA020E20FA04F301FA05F2CB
:1081780043EA020321FA04F001F0004121FA04F273
:1081880020EA020000EBD3705EEA430E08BF20EA43
:10819800D37070BD94F0000F0FD101F0004640007D
:1081A80041EB010111F4801F08BF013CF7D041EAFF
:1081B800060195F0000F18BF704703F00046520003
:1081C80043EB030313F4801F08BF013DF7D043EAD4
:1081D8000603704794EA0C0F0CEA135518BF95EA8A
:1081E8000C0F0CD050EA410618BF52EA4306D1D111
:1081F80081EA030101F000414FF0000070BD50EA30
:10820800410606BF1046194652EA430619D094EAB9
:108218000C0F02D150EA013613D195EA0C0F05D1A3
:1082280052EA03361CBF104619460AD181EA0301F7
:1082380001F0004141F0FE4141F470014FF00000AF
:1082480070BD41F0FE4141F4780170BD70B54FF04A
:10825800FF0C4CF4E06C1CEA11541DBF1CEA1355CA
:1082680094EA0C0F95EA0C0F00F0A7F8A4EB0504AC
:1082780081EA030E52EA03354FEA013100F08880A3
:108288004FEA03334FF0805545EA131343EA12636C
:108298004FEA022245EA111545EA10654FEA002621
:1082A8000EF000419D4208BF964244F1FD0404F5DA
:1082B800407402D25B084FEA3202B61A65EB030536
:1082C8005B084FEA32024FF480104FF4002CB6EBF3
:1082D800020E75EB030E22BFB61A754640EA0C0073
:1082E8005B084FEA3202B6EB020E75EB030E22BFB3
:1082F800B61A754640EA5C005B084FEA3202B6EBF4
:10830800020E75EB030E22BFB61A754640EA9C00B2
:108318005B084FEA3202B6EB020E75EB030E22BF82
:10832800B61A754640EADC0055EA060E18D04FEA40
:10833800051545EA16754FEA06164FEAC30343EAE0
:1083480052734FEAC2025FEA1C1CC0D111F4801FAD
:108358000BD141EA00014FF000004FF0004CB6E7A6
:1083680011F4801F04BF01430020B4F1FD0C88BF45
:10837800BCF5E06F3FF6AFAEB5EB030C04BFB6EB50
:10838800020C5FEA500C50F1000041EB045170BD43
:108398000EF0004E4EEA113114EB5C04C2BFD4EB70
:1083A8000C0541EA045170BD41F480114FF0000EF4
:1083B800013C90E645EA060E8DE60CEA135594EA70
:1083C8000C0F08BF95EA0C0F3FF43BAF94EA0C0F73
:1083D8000AD150EA01347FF434AF95EA0C0F7FF4E8
:1083E80025AF104619462CE795EA0C0F06D152EA3C
:1083F80003353FF4FDAE1046194622E750EA410620
:1084080018BF52EA43067FF4C5AE50EA41047FF430
:108418000DAF52EA43057FF4EBAE12E74FF0FF3C95
:1084280006E000BF4FF0010C02E000BF4FF0010C66
:108438004DF804CD4FEA410C7FEA6C5C4FEA430CDF
:1084480018BF7FEA6C5C1BD001B050EA410C0CBF2E
:1084580052EA430C91EA030F02BF90EA020F002090
:10846800704710F1000F91EA030F58BF994208BFF7
:1084780090422CBFD8176FEAE37040F001007047B4
:108488004FEA410C7FEA6C5C02D150EA013C07D10B
:108498004FEA430C7FEA6C5CD6D152EA033CD3D056
:1084A8005DF8040B704700BF8446104662468C4650
:1084B8001946634600E000BF01B5FFF7B7FF002883
:1084C80048BF10F1000F01BD4DF808EDFFF7F4FFAC
:1084D8000CBF012000205DF808FB00BF4DF808ED37
:1084E800FFF7EAFF34BF012000205DF808FB00BF5A
:1084F8004DF808EDFFF7E0FF94BF012000205DF87C
:1085080008FB00BF4DF808EDFFF7CEFF94BF012030
:1085180000205DF808FB00BF4DF808EDFFF7C4FF29
:1085280034BF012000205DF808FB00BF4FEA410C72
:108538007FEA6C5C02D150EA013C0AD14FEA430C55
:108548007FEA6C5C02D152EA033C02D14FF0000092
:1085580070474FF0010070474FEA410212F50012D0
:1085680015D211D56FF47873B3EB625212D94FEA72
:10857800C12343F0004343EA505311F0004F23FA5C
:1085880002F018BF404270474FF00000704750EAB1
:10859800013005D111F0004008BF6FF0004070476E
:1085A8004FF00000704700BF4A0011D212F50012C8
:1085B80011D20DD56FF47873B3EB62520ED44FEA33
:1085C800C12343F0004343EA505323FA02F07047B3
:1085D8004FF00000704750EA013002D14FF0FF30F1
:1085E80070474FF0000070474FEA4102B2F1E04394
:1085F80024BFB3F5001CDCF1FE5C0DD901F0004C82
:108608004FEAC0024CEA5070B2F1004F40EB8300D1
:1086180008BF20F00100704711F0804F21D113F1FD
:108628003872BCBF01F00040704741F480114FEA36
:108638005252C2F11802C2F1200C10FA0CF320FABF
:1086480002F018BF40F001004FEAC1234FEAD323DC
:1086580003FA0CFC40EA0C0023FA02F34FEA430346
:10866800CCE77FEA625307D150EA01331EBF4FF0CF
:10867800FE4040F44000704701F0004040F0FE40EA
:1086880040F40000704700BF002100F0E9BE0A2254
:10869800002100F073BF0A22002100F06FBF000024
:1086A80010B5054C13462CB10A4601460220AFF31B
:1086B800008010BD204610BD000000000048704733
:1086C8005CE0032010B5431E0A44914204D011F81F
:1086D800014B03F8014FF8E710BD024403469342EB
:1086E80002D003F8011BFAE77047000038B5124BB7
:1086F8001C68A36B0546D3B91820FDF727F943F288
:108708000E33A06303804AF6CD33438041F234230D
:1087180083804EF26D63C3804DF6EC6303810523BD
:1087280043810B23838101220023C0E90423A36B27
:1087380000221D615A6138BD58E00320C9B20346C2
:1087480010F8012B1AB19142F9D118467047002947
:108758000CBF184600207047024B0146186800F00D
:1087680003B800BF58E0032070B5064608460C461B
:1087780000F00DF8451C29463046FDF707F9064676
:1087880018B12A462146FFF79DFF304670BD0346C3
:1087980013F8012B002AFBD1181A0138704730B59D
:1087A80082B1451E013915F8013F11F8014FA34266
:1087B80006D1EC431444E04201D0002BF3D11C460F
:1087C800181B30BD104630BD10B5034642B111F834
:1087D800014B03F8014B013A002CF7D11A4400E091
:1087E80010BD934202D003F8014BFAE710BDF0B573
:1087F800037863B90B78002B18BF0020F0BD15F87B
:10880800012F62B114F8017F97423046F7D0034632
:10881800461C007810B14D1E5C1EF0E7F0BD1846EE
:10882800F0BD70B504460D4645EC104B164601F0F8
:1088380093FC51EC100B7EB1C5F30A53C3F16B03E3
:10884800002B09DD1B0503F17F55002405F54015B4
:1088580022462B46FFF7D0FB70BD00000000000049
:108868002DE9F04F9DB0002302900C461392189307
:108878004FF0000A4FF0000B1791179B1A780D2A3A
:1088880005D8092A13D2002A00F0AC8112E02B2A5D
:1088980004D02D2A04D0202A0CD108E0002200E0C0
:1088A80001220C925A1C17925B782BB99AE101337A
:1088B8001793E2E700230C93179D2B78302B5CD19C
:1088C8006B78582B01D0782B4CD10C9B019318ABAB
:1088D8000093A94A029819AB17A900F0A4FE10F05A
:1088E8000706044600F08785062E05D101350023CA
:1088F80017950C9300F07FBD189A3AB135211AA844
:1089080001F017FD1899029801F094F9062E22D863
:10891800DFE806F0040D08181D0D04004FF0000BE9
:10892800DA4618E0DDF868A0DDF86CB013E01B9BB0
:10893800199ADDF868A023F4801302F2334243EA5F
:10894800025B08E0DFF834B24FF0000A03E06FF092
:10895800004B4FF0FF3A210740F14D854BF0004B9B
:1089680000F049BD179B5A1C17925B78302BF9D041
:10897800002B00F04085012300E000234FF00008A1
:108988000693179B0793CDF81480CDF810800A2220
:10899800179D2E78A6F13003D9B209290ED804996B
:1089A8000829DDBF059902FB0133059302FB08384E
:1089B800049B0135013304931795E9E70298FFF703
:1089C8007DFE07680298FFF779FE0068FFF7DFFE73
:1089D800394602462846FFF7E2FE074628B100203E
:1089E8003346049D0246014657E00298FFF766FEAB
:1089F8000068FFF7CCFE179B1A181792049A1B5CA5
:108A0800002A42D11046302B05D1179B5A1C1792C9
:108A180001305B78F7E7A3F13102082A43D8179AA7
:108A28000792024600200546303B00F1010126D09E
:108A38000A4405EB000C29460A2661450ED001318F
:108A480001F1FF3EBEF1080F03DC059F7743059750
:108A5800F3E71029D8BF06FB08F8EEE728440828F2
:108A680000F1010505DC05980A2101FB0033059397
:108A780004E0102DDCBF0A2101FB08380021179BF8
:108A8800581C17905B78084602E0049D38463A4621
:108A9800A3F130010929C7D90121652B01D0452B44
:108AA80051D16DB904E0652B40F0B3840022012157
:108AB80028B9069B002B00F09580054600E00025AC
:108AC800179C631C179363782B2B06D02D2B02D091
:108AD8000026039606E0012300E000230393A31C6D
:108AE8001793A378A3F13006092E2BD8302B04D185
:108AF800179B5E1C17965B78F8E7A3F13106082EE2
:108B080021D8A3F1300E179B4FF00A0C1F46179B74
:108B18005E1C17965B78A3F13009B9F1090F04D8E8
:108B28000CFB0E3EAEF1300EF1E7F61B082E44F6B4
:108B38001F6902DCF145A8BFF146039E2EB1C9F1B9
:108B4800000902E017944FF00009002D53D10028C6
:108B580040F05184069A002A40F04D84002941D102
:108B68004E2B20D002DC492B0AD03BE0692B07D0E2
:108B78006E2B18D036E000BFFCAA0D000000F07F75
:108B8800A84917A800F080FF60B3179BA649013BCE
:108B980017A8179300F078FF10B9179B01331793A4
:108BA800DFF8A0B21AE0A14917A800F06DFFC8B11C
:108BB800179B1B78282B0FD11AAA9D4917A800F0DC
:108BC80076FF052808D11B9BDDF868A043F0FF4B12
:108BD8004BF4E00B00F00FBCDFF86CB24FF0000A6A
:108BE80000F009BC139B1794002B00F00F8400239E
:108BF8000C9300F002BC049B0598002B08BF2B4681
:108C0800102D2C46C2EB0909A8BF10240493FFF7C6
:108C18007DF9092C82468B4613DD864B03EBC40392
:108C280053E91223FFF7E8F9064640460F46FFF7D7
:108C38006DF902460B4630463946FFF72BF8824657
:108C48008B460F2D36DCB9F1000F00F0D48324DDFC
:108C5800B9F1160F07DC774D05EBC90952465B469B
:108C6800D9E9000114E0C5F12503994522DC714CCE
:108C7800C5F10F0504EBC501C5EB090552465B4676
:108C8800D1E9000104EBC504FFF7B6F9D4E90023E4
:108C9800FFF7B2F982468B46ADE319F1160F09DBEF
:108CA800644DA5EBC909D9E9002350465946FFF799
:108CB800CDFAEFE72C1B4C44002C57DD14F00F01C4
:108CC8000AD05C4B03EBC10152465B46D1E9000177
:108CD800FFF792F982468B4634F00F0400F0B88013
:108CE800B4F59A7F0BDD0024254605940494029A76
:108CF800DFF850B1222313604FF0000A87E14E4E8F
:108D0800002324115046594698463746012C0BDD5E
:108D1800E20704D5D6E90023FFF76EF9012308F12D
:108D2800010864100836F1E70BB182468B46ABF1B7
:108D3800547B07EBC80752465B46D7E90001FFF7AB
:108D48005BF921F000438B460A461B0D3B491B0586
:108D58008B428246C7D8A1F580118B4286BFDFF8C7
:108D6800ECB04FF0FF3A02F1547B71E070D06442EE
:108D780014F00F020AD02F4B03EBC203504659469A
:108D8800D3E90023FFF762FA82468B4624115FD0AD
:108D98001F2C04DD002425460594049430E114F0CA
:108DA800100F0CBF00236A23254E039350465946E3
:108DB8000023002C09DDE20704D5D6E90023FFF7DC
:108DC8001BF9012364100836F3E70BB182468B4682
:108DD800039BEBB1CBF30A53C3F16B03002B59464A
:108DE80016DD1F2B0EDD342BDEBF203B4FF0FF328C
:108DF80002FA03F34FF0000ACCBF4FF05C7B03EAA2
:108E0800010B05E04FF0FF3202FA03F303EA0A0A06
:108E18000022002350465946FFF756FB0028B9D1D7
:108E280018E000BF24AB0D0027AB0D002DAB0D00E3
:108E380010AB0D0058AB0D0020AC0D000000A07C5D
:108E480030AB0D000000F07F0000F8FFFFFFEF7F60
:108E580000230393059B0093049A079902982B46D5
:108E680000F03AFF059000283FF43DAFB9F1000F3C
:108E7800C9F10003A8BF00230D93002429EAE97370
:108E880012932546059B0298596800F09EFE0490AF
:108E980000283FF42CAF059B1A69023203F10C013C
:108EA80092000C30FFF70EFC1AAA19A94BEC10AB74
:108EB8000298CDE908AB01F0C4F9189000283FF4F6
:108EC80016AF0121029800F092FF054600283FF4F2
:108ED8000EAF199B03991A9E002BADBF0D9A129ADB
:108EE800DDF8348002EB0308B8BFD21AA3EB010304
:108EF8003344B549A8BF129A013B8B42C6F13606E6
:108F080080F28A80C91A1F29C8BFB04F4FF00109E3
:108F1800D4BF09FA01F3FF1AA6EB0106D9BF0693DD
:108F2800002709FA07F7CDF8189008EB0609039B04
:108F3800C84516441E444346A8BF4B46B342A8BF83
:108F48003346002BC2BFC3EB0909F61AC3EB080866
:108F58000D9B002B64D1B9F1000F7ADC129B002B1A
:108F680040F08180002E00F38880B8F1000F00F3F4
:108F78008E80049A1899029801F08FF80446002808
:108F88003FF4B5AEC36807930023C360294601F0D8
:108F980068F8002880F28980079B002B40F0048243
:108FA800BAF1000F40F00082CBF31303002B40F01E
:108FB800FB812BF000431B0D1B05B3F1D66F40F26C
:108FC800F3816369002B6CD021460122029800F0DE
:108FD800F7FF2946044601F044F8002840F3E481ED
:108FE8002BF00043039A1B0D1B05002A00F08C8010
:108FF800B3F1D66F00F38880B3F15C7F00F3D681BC
:10900800029A22234FF0000A4FF0000B1360059BD1
:10901800002B40F0DC81EEE101230027069384E772
:1090280029461A46029800F07DFF054600283FF4BD
:109038005EAE0146189A029800F0E2FE07900028FA
:109048003FF455AE1899029800F0F4FD079B189369
:1090580081E74A461899029800F0B2FF1890002854
:109068007FF47CAF43E6129A0499029800F05AFF05
:10907800049000287FF476AF39E6324604990298C6
:1090880000F09EFF049000287FF46FAF2FE629467A
:109098004246029800F094FF054600287FF469AF25
:1090A80025E62369012B8FDC7EE161D1079ACBF39A
:1090B800130322B346498B425A462ED1039B51468D
:1090C80063B1444B1340B3F1D46F07D81B0DC3F100
:1090D8006B034FF0FF3000FA03F301E04FF0FF336A
:1090E8008B421AD13C498A4202D101333FF4FFAD89
:1090F800384B134003F5801B4FF0000A54E163B965
:10910800BAF1000F09D16BE7A3F580136FEA135B7F
:109118006FEA0B5B4FF0FF3A46E117B117EA0B0F06
:1091280002E0069B13EA0A0F00F03E81079B039AB0
:109138005046594653B1FFF774FB02460B46DDE92A
:109148000801FEF7A7FD82468B462DE1FFF769FB74
:1091580002460B46DDE90801FEF79AFD00220023CE
:1091680082468B46FFF7B0F900287FF449AF1BE130
:109178002946204601F0B3F857EC106B00224FF057
:10918800804310EE100A3946FFF7B2F9002842D0A2
:10919800079B23B14FF00008DFF8409011E0BAF1C7
:1091A800000F03D1CBF313033BB91BE0BAF1010F56
:1091B80003D1BBF1000F3FF423AFDFF824904FF049
:1091C80000080026054F39E002FCFFFFE2FBFFFF25
:1091D800FFFF0F000000F07FFFFFEF7F0000F03F70
:1091E8000000F0BF0022984B30463946FFF776F969
:1091F80040B9304639460022944BFEF7FDFE06463C
:109208000F4601E0914F002607F10043149615938D
:10921800DDE9148912E08D4B304639460022FEF70D
:10922800EBFE079B06460F4623B901F100430E905B
:109238000F9301E0CDE90E67DDE90E892BF00043BD
:109248001B0D1B050693069A814B9A422BD1DDE92B
:109258000823ABF1547B4BEC10ABCDE90A2300F0AB
:109268007BFF404653EC102B4946FEF7C5FE52469D
:109278005B46FEF70FFD21F000431B0D754A1B05E9
:10928800934282460CD9744B0B9A9A4203D10A9B9B
:1092980001333FF42CADDFF8C0B14FF0FF3A72E074
:1092A80001F1547B38E0039B33B3069BB3F1D46FD1
:1092B80022D85DA3D3E9002330463946FFF718F9D1
:1092C800A8B139463046FFF76FF9002808BF0120DA
:1092D800FEF71CFE079B06460F4623B901F1004323
:1092E8001090119301E0CDE91067DDE91089069A25
:1092F80009F1D663C2EB03099DED080B00F02CFFC2
:10930800404653EC102B4946FEF776FEDDE908236C
:10931800FEF7C0FC82468B46039BA3BB2BF00043A1
:109328001B0D069A1B059A42D8462CD13946304661
:10933800FFF712F9FEF7FAFD0B46024639463046AA
:10934800FEF7A6FC079B06460F462BB9BAF1000F9D
:1093580002D1CBF3130383B135A3D3E900233046FD
:109368003946FFF7BBF8002831D133A3D3E90023EE
:1093780030463946FFF7D0F804E031A3D3E900239B
:10938800FFF7ACF818BB1899029800F053FC049941
:10939800029800F04FFC2946029800F04BFC214649
:1093A800029800F047FC6DE5039B83B12B4B0B93B0
:1093B80000230A9350465946DDE90A23FEF71CFEAE
:1093C80082468B4619B910B9029A2223136018995C
:1093D800029800F02FFC0499029800F02BFC294613
:1093E800029800F027FC0599029800F023FC21461A
:1093F800029800F01FFC139B13B1139A179B13607C
:109408000C9B1BB152460BF1004307E052465B46EA
:1094180004E000252A460121FFF741BB43EC102B4D
:109428001DB0BDE8F08F00BF0000C0FFFFFFDF41A7
:109438009535A094FFFFDF3F35E5AF350000E03FED
:109448009535A094FFFFCF3F0000F03F0000E03FBC
:109458000000E07FFFFF9F7CFFFFEF7F0000503997
:10946800024B0A4601461868FFF7FAB958E003208C
:109478002DE9F04780464048D0F800900F463D4619
:1094880015F8014B09EB0400407800F0080000F0E3
:10949800FF0608B12F46F2E72D2C03D1BD1C7C78BE
:1094A800012603E02B2C04BF7C78BD1C13B1102BC4
:1094B8000AD15BE0302C57D1287800F0DF0058281B
:1094C8004DD16C7810230235002E14BF4FF0004C9C
:1094D8006FF0004C0027BCFBF3FA384603FB1ACCAC
:1094E80009EB040E9EF801E01EF0040F01D0303C99
:1094F8000BE01EF0030E1BD0BEF1010F0CBF4FF0A6
:10950800370E4FF0570ECEEB0404A34210DDB7F12F
:10951800FF3F0AD0504506D801D1644503DC03FB60
:109528000040012701E04FF0FF3715F8014BD7E75E
:109538007B1C0CD1002E4FF0220314BF4FF00040CB
:109548006FF00040C8F800302AB9BDE8F08706B1CE
:10955800404272B107B1691E1160BDE8F08730243E
:10956800002BB1D10823AFE70A23ADE7302CA3D0F5
:10957800AAE7BDE8F08700BFF4DF032013460A46D8
:10958800014602480068FFF773BF00BF58E0032098
:10959800F0B506694B11B34200F1140527DA11F052
:1095A8001F0105EB860605EB830201D1294616E06B
:1095B800141D55F82320C1F1200ECA402B46B44291
:1095C80009D2276807FA0EF73A4343F8042B54F8F0
:1095D800042BCA40F3E71A6052B1043308E0B242E0
:1095E8000B4605D252F8043B41F8043BF7E72B46FB
:1095F8005B1B9B10036103B94361F0BDA0F130030D
:10960800092B01D820380AE0A0F16103052B01D805
:10961800473804E0A0F14103052B02D82738C0B22F
:109628007047002070472DE9F04F8BB08A4690466E
:1096380006930290FFF742F8036803931846FFF772
:10964800A6F8039B019003444FF0000B13F8013C6C
:109658000793DAF8003002331F4613F8010B30285D
:1096680002D10BF1010BF7E7FFF7C8FF0446E0B999
:10967800019A03993846FFF792F8002834D1019BE4
:10968800F85CFE18FFF7BAFF80B333461878302825
:109698001F4603F10103F9D0FFF7B0FFB0FA80F5D8
:1096A8006D0934464FF0010B01E000252C463A467F
:1096B800164601323078FFF7A1FF0028F8D1019A49
:1096C80003993046FFF76BF850B954B9019BF41869
:1096D8002246164601323078FFF790FF0028F8D16D
:1096E80034B1A41BA40003E03E4600E00446012573
:1096F8003378502B01D0702B2AD173782B2B08D0BC
:109708002D2B03D0711C4FF0000905E04FF0010923
:1097180001E04FF00009B11C0878FFF76FFF431E06
:10972800DBB2182B14D8A0F1100211F8010FFFF7C3
:1097380065FF431EDBB2182B04D80A2303FB020281
:10974800103AF2E7B9F1000F00D05242144400E099
:109758003146CAF800102DB1BBF1000F14BF00202C
:1097680006207CE1F31B013B2946072B02DD013172
:109778005B10FAE7029800F028FA019B00F1140A3E
:109788004FF00009C3F101030546CDF810A0CB4600
:109798000893B7422FD2731E0593079A16F8013C17
:1097A80093420BD0BBF1200F16D1049BC3F8009055
:1097B80004334FF000090493CB460DE0059B089A4B
:1097C80013449F42EED81846019A03990993FEF76D
:1097D800E6FF099B68B1E5E716F8010CFFF70EFFF5
:1097E80000F00F0000FA0BF0059B49EA00090BF1A5
:1097F800040B1E46CDE7049840F8049BCAEB000012
:10980800801028614701484600F0A4FAD8F80060A3
:10981800381AB04226DD871B3946284600F0A3FDDA
:10982800C8B17B1E591103F01F024FF001095AF805
:10983800211009FA02F20A420ED04B4502DC4FF021
:10984800020909E0B91E284600F08DFD0028F6D06F
:109858004FF0030900E0814639462846FFF798FE95
:109868003C440CE009DA371A29463A46029800F0D7
:10987800A7FBE41B054600F1140A4FF00009D8F8CD
:1098880008309C4208DD0298294600F0D3F9149A62
:1098980000231360A320E2E0D8F80400844253DADE
:1098A800041BA6422EDCD8F80C30022B1AD0032B4E
:1098B8001CD0012B1DD1A6421BD1012E0BDC069A10
:1098C800D8F80430136001232B61CAF80030149BC8
:1098D80062201D60C3E0711E284600F044FD002888
:1098E800EDD106E0159B002BE9D002E0159B002B7B
:1098F800E5D10298294600F09DF9149A00231360D7
:109908005020ACE0671EB9F1000F06D13FB13946CF
:10991800284600F028FD814601E04FF001097A1140
:10992800012307F01F0703FA07F75AF822302146E8
:109938001F42284618BF49F00209361BFFF728FEC8
:109948000227D8F8044000E00127B9F1000F00F021
:109958008180D8F80C30022B0ED0032B10D0012BAD
:1099680076D119F0020F73D0DAF8000049EA00093D
:1099780019F0010F07D16BE0159BC3F10103159393
:10998800159B002B64D0D5F810A005F114034FEAFD
:109998008A0903EB090100201A68B2F1FF3F02D0DF
:1099A80001321A6020E043F8040B9942F4D8AB68FE
:1099B8009A4512DB69680298013100F006F92A69B4
:1099C800023205F10C01834692000C30FEF77AFE54
:1099D8002946029800F02EF95D462B695A1C05EBC2
:1099E80083032A6101225A61022F05F1140211D161
:1099F800D8F80030013B9E4227D17111012306F0AF
:109A08001F0603FA06F652F821301E420CBF022741
:109A180001271AE02B699A450ADA01212846FFF73F
:109A2800B7FDD8F8083001349C423FF72CAF0BE063
:109A380016F01F0608D09144C6F1200659F8040C08
:109A480000F088F9B042E8DB012747F0200701E081
:109A580047F01007149B1D60069B38461C600BB02E
:109A6800BDE8F08FC2F10802920070B5C2F120067D
:109A78004368056803FA06F42C43D340046040F8B1
:109A8800043F8842F4D370BD30B5036811F8014B28
:109A980001334CB11A78A2F14105192D98BF203233
:109AA800A242F3D0002030BD0360012030BD2DE973
:109AB800F04F0B68D0F800B05E1102EB860613F089
:109AC8001F0385B018BF0436351F1746002282468B
